:030000000216489D
:0C164800787FE4F6D8FD75812F02168F24
:100006007F414141414141414141414141417F009F
:1000160001010101010101010101010101010100CB
:100026007F0101010101017F4040404040407F00C7
:100036007F0101010101017F0101010101017F0031
:10004600414141414141417F01010101010101005D
:100056007F4040404040407F0101010101017F0097
:10006600404040404040407F4141414141417F0046
:100076007F4141414141414101010101010101002D
:100086007F4141414141417F4141414141417F00E1
:100096007F4141414141417F0101010101010100CF
:1000A6007F414141414141414141414141417F00FF
:1000B6007F414141212121212121214141417F00CF
:1000C600077921212111111111112121217907000F
:1000D600011F61211111090909111121611F010077
:1000E60001071961111109050911116119070100AB
:1000F60001030D1131090503050931110D03010035
:100106000103050911390701073911090503010022
:1001160001030505091F0101011F0905050301006A
:1001260001030305070D0901090D07050303010076
:100136000103030303050505050503030303010086
:100146000101010303030303030303030101010088
:10015600010101010101010101010101010101008A
:10016600010101010101010101010101010101007A
:10017600010101010101010101010101010101006A
:10018600010101010101010101010101010101005A
:10019600010101010101010101010101010101004A
:1001A600010101010101010101010101010101003A
:1001B600010101010101010101010101010101002A
:1001C600010101010101010101010101010101001A
:1001D600010101010101010101010101010101000A
:1001E60001010101010101010101010101010100FA
:1001F60001010101010101010101010101010100EA
:1002060001010103030303030303030301010100C7
:1002160001030303030505050606020202020100A7
:1002260001030305050909010B0A06040A02010078
:10023600010305050911010102150E0C1402010046
:1002460001030509112101010224191E34020100CE
:1002560001030D1121010101020C303F04020100CE
:100266000107196101010101031860781E060100EA
:10027600011F6101010101011E602010681E0100BD
:100286000779010101010107782020101078070085
:100296007F0101010101017F4040404040407F0055
:1002A6007F0101010101017F4040404040407F0045
:1002B6007F0101010101017F4040404040407F0035
:1002C6007F0101010101017F4040404040407F0025
:1002D6007F0101010101017F4040404040407F0015
:1002E6007F0101010101017F4040404040407F0005
:1002F6007F0101010101017F4040404040407F00F5
:100306007F0101010101017F4040404040407F00E4
:100316007F0101010101017F4040404040407F00D4
:100326007F0101010101017F4040404040407F00C4
:100336007F0101010101017F4040404040407F00B4
:100346007F0101010101017F2020202040787F00EC
:100356007F0101010101017F10202020603E7F0006
:100366007F0101010101017F8080107038267F0026
:100376007F0101010101017F000428101C227F007A
:100386007F0101010101017F0022140814227F0070
:100396007F0101010101017F00100A041C227F0078
:1003A6007F0101010101017F080804070E327F0069
:1003B6007F0101010101017F04040202033E7F0067
:1003C6007F0101010101017F02020202010F7F008C
:1003D6007F0101010101017F0101010101017F008E
:1003E6007F0101010101017F0101010101017F007E
:1003F6007F0101010101017F0101010101017F006E
:100406007F0101010101017F0101010101017F005D
:100416007F0101010101017F0101010101017F004D
:100426007F0101010101017F0101010101017F003D
:100436007F0101010101017F0101010101017F002D
:100446007F0101010101017F0101010101017F001D
:100456007F0101010101017F0101010101017F000D
:100466007F0101010101017F0101010101017F00FD
:100476007F0101010101017F0101010101017F00ED
:10048600710F01010101017F0101010101790F00D5
:10049600413D03010101017F01010101611F0100CD
:1004A60041310D030101017F0101016119070100BD
:1004B600412119050301017F010121110D030100ED
:1004C600412111090503017F0121110905030100DD
:1004D600412111110905017F0111090505030100DB
:1004E600412121111109097F0909050503030100AD
:1004F600412121212111117F050503030303010079
:10050600414141212121217F030303030101010010
:10051600414141414141417F010101010101010088
:10052600414141414141417F010101010101010078
:10053600414141414141417F010101010101010068
:10054600414141414141417F010101010101010058
:10055600414141414141417F010101010101010048
:10056600414141414141417F010101010101010038
:10057600414141414141417F010101010101010028
:10058600414141414141417F010101010101010018
:10059600414141414141417F010101010101010008
:1005A600414141414141417F0101010101010100F8
:1005B600414141414141417F0101010101010100E8
:1005C600414141424242427F0303030301010100CC
:1005D600414242424244447F0505030303030100AE
:1005E600414242444448487F090905050303010086
:1005F600414244444850407F01110905050301006A
:10060600414244485060407F012111090503010021
:1006160041424C506040407F010121110D03010011
:10062600414658604040407F0101016119070100C1
:10063600415E60404040407F01010101611F0100B1
:10064600477840404040407F0101010101790700A1
:100656007F4040404040407F0101010101017F0091
:100666007F4040404040407F0101010101017F0081
:100676007F4040404040407F0101010101017F0071
:100686007F4040404040407F0101010101017F0061
:100696007F4040404040407F0101010101017F0051
:1006A6007F4040404040407F0101010101017F0041
:1006B6007F4040404040407F0101010101017F0031
:1006C6007F4040404040407F0101010101017F0021
:1006D6007F4040404040407F0101010101017F0011
:1006E6007F4040404040407F0101010101017F0001
:1006F6007F4040404040407F0101010101017F00F1
:10070600704F40404040407F0F01010101017F00D2
:10071600407C43404040407F3D03010101017F0092
:1007260040704C434040407F310D030101017F0082
:10073600406058444240407F2119090301017F006F
:10074600406050484442407F2111090503017F0063
:10075600406050504844407F2111110905017F0037
:10076600406060505048487F2121111109097F00DF
:10077600406060606050507F2121212111117F006F
:10078600404040606060607F4141212121217F001F
:10079600404040404040407F4141414141417F000F
:1007A600404040404040407F4141414141417F00FF
:1007B600404040404040407F4141414141417F00EF
:1007C600404040404040407F4141414141417F00DF
:1007D600404040404040407F4141414141417F00CF
:1007E600404040404040407F4141414141417F00BF
:1007F600404040404040407F4141414141417F00AF
:10080600404040404040407F4141414141417F009E
:10081600404040404040407F4141414141417F008E
:10082600404040404040407F4141414141417F007E
:10083600404040404040407F4141414141417F006E
:10084600404040404040784F2121212141417F00D6
:100856004040404040605E49152121212179070032
:1008660040404040607856490D111121611F01003A
:1008760040404060706C62650911216119070100F2
:100886004040607068444241073911090503010080
:100896004040506864444241011F090505030100B8
:1008A6004048585464624241090D0705030301009C
:1008B600444C5262424241450503030303010100D1
:1008C600424E7242414141430303030101010100CB
:1008D6007F414141414141410101010101010100C5
:1008E6007F414141414141410101010101010100B5
:1008F6007F414141414141410101010101010100A5
:100906007F41414141414141010101010101010094
:100916007F41414141414141010101010101010084
:100926007F41414141414141010101010101010074
:100936007F41414141414141010101010101010064
:100946007F41414141414141010101010101010054
:100956007F41414141414141010101010101010044
:100966007F41414141414141010101010101010034
:100976007F41414141414141010101010101010024
:100986007F6161616141414303030301010101008C
:100996007F51516161616145050303030301010054
:1009A6007F49495151616141090D07050303010062
:1009B6007F41454951516141011F09050503010068
:1009C6007F4143454951314107391109050301006A
:1009D6007F414143454959610911216119070100C8
:1009E6007F414141434D71490D111121611F0100A4
:1009F6007F41414141437D4915212121217907004C
:100A06007F41414141414F712121212141417F00D7
:100A16007F4141414141417F4141414141417F0047
:100A26007F4141414141417F4141414141417F0037
:100A36007F4141414141417F4141414141417F0027
:100A46007F4141414141417F4141414141417F0017
:100A56007F4141414141417F4141414141417F0007
:100A66007F4141414141417F4141414141417F00F7
:100A76007F4141414141417F4141414141417F00E7
:100A86007F4141414141417F4141414141417F00D7
:100A96007F4141414141417F4141414141417F00C7
:100AA6007F4141414141417F4141414141417F00B7
:100AB6007F4141414141417F4141414141417F00A7
:100AC6007F4141414141417F2121212141417F0017
:100AD6007F4141414141417F152121212179070073
:100AE6007F4141414141417F0D111121611F0100AB
:100AF6007F4141414141417F0911216119070100AF
:100B06007F4141414141417F0739110905030100F8
:100B16007F4141414141417F011F09050503010014
:100B26007F4141414141417F090D07050303010012
:100B36007F4141414141417F050303030301010018
:100B46007F4141414141417F03030301010101000E
:100B56007F4141414141417F010101010101010004
:100B66007F4141414141417F0101010101010100F4
:100B76007F4141414141417F0101010101010100E4
:100B86007F4141414141417F0101010101010100D4
:100B96007F4141414141417F0101010101010100C4
:100BA6007F4141414141417F0101010101010100B4
:100BB6007F4141414141417F0101010101010100A4
:100BC6007F4141414141417F010101010101010094
:100BD6007F4141414141417F010101010101010084
:100BE6007F4141414141417F010101010101010074
:100BF6007F4141414141417F010101010101010064
:100C06007F414141414141710F030303010101004D
:100C16007F414141414141413D0503030303010039
:100C26007F41414141414141390D0705030301001F
:100C36007F4141414141414121190D070503010011
:100C46007F414141414141412131190D07030100D5
:100C56007F41414141414141211131190D030100BB
:100C66007F4141414141414121211171190F01004B
:100C76007F4141414141414141212121611F1100F3
:100C86007F41414141414141414141212179270073
:100C96007F414141414141414141414141417F0003
:100CA6007F414141414141414141414141417F00F3
:100CB6007F414141414141414141414141417F00E3
:100CC6007F414141414141414141414141417F00D3
:100CD6007F414141414141414141414141417F00C3
:100CE6007F414141414141414141414141417F00B3
:100CF6007F414141414141414141414141417F00A3
:100D06007F414141414141414141414141417F0092
:100D16007F414141414141414141414141417F0082
:100D26007F4040404040407F0101010101017F00BA
:100D36007F4040404040407F0101010101017F00AA
:100D46007F784040404040710F01010101017F0062
:100D56007F5E6040404040413D03010101017F004C
:100D66007F46586040404041310D030101017F003C
:100D76007F424C50604040412119050201017F002D
:100D86007F424448506040412111090503017F001C
:100D96007F424444480440412111110905017F0066
:100DA6007F424244444848412121111109097F00EC
:100DB6007F424242424444412121212111117F00B8
:100DC6007F414142424242414141212121217F004E
:100DD6007F414141414141414141414141417F00C2
:100DE6007F414141414141414141414141417F00B2
:100DF6007F414141414141414141414141417F00A2
:100E06007F414141414141414141414141417F0091
:100E16007F414141414141414141414141417F0081
:100E26007F414141414141414141414141417F0071
:100E36007F414141414141414141414141417F0061
:100E46007F414141414141414141414141417F0051
:100E56007F414141414141414141414141417F0041
:100E66007F0101010101017F0101010101017F00F3
:100E76007F0101010101017F0101010101017F00E3
:100E86007F0F0101010101710F01010101017F00C5
:100E96007F3D0301010101413D03010101017F0085
:100EA6007F310D0301010141310D030101017F0075
:100EB6007F211905030101412119050301017F0065
:100EC6007F211109050301412111090503017F0055
:100ED6007F211111090501412111110905017F0029
:100EE6007F212111110909412121111109097F00D1
:100EF6007F212121211111412121212111117F0061
:100F06007F414121212121414141212121217F0090
:100F16007F414141414141414141414141417F0080
:100F26007F414141414141414141414141417F0070
:100F36007F414141414141414141414141417F0060
:100F46007F414141414141414141414141417F0050
:100F56007F414141414141414141414141417F0040
:100F66007F414141414141414141414141417F0030
:100F76007F414141414141414141414141417F0020
:100F86007F414141414141414141414141417F0010
:100F96007F414141414141414141414141417F0000
:100FA6007F0101010101017F4040404040407F0038
:100FB6007F0101010101017F4040404040407F0028
:100FC6007F0F0101010101477840404040407F000A
:100FD6007F3D0301010101415E60404040407F00CA
:100FE6007F310D03010101414658604040407F00BA
:100FF6007F21190503010141424C506040407F00AA
:101006007F211109050301414244485060407F0099
:101016007F211111090501414244444850407F0097
:101026007F212111110909414242444448487F0069
:101036007F212121211111414242424244447F0035
:101046007F414121212121414141424242427F00CB
:101056007F414141414141414141414141417F003F
:101066007F414141414141414141414141417F002F
:101076007F414141414141414141414141417F001F
:101086007F414141414141414141414141417F000F
:101096007F414141414141414141414141417F00FF
:1010A6007F414141414141414141414141417F00EF
:1010B6007F414141414141414141414141417F00DF
:1010C6007F414141414141414141414141417F00CF
:1010D6007F414141414141414141414141417F00BF
:03188A0001140046
:10181F00E4FDFCC3ED9FEC9E5015E4FBFA0BBB00FF
:0F182F00010AEB646E4A70F50DBD00010C80E4F8
:01183E002287
:10185500E4FEEF1392B5D2B6C2B6EFC313FF0EBEC8
:0218650008F089
:01186700225E
:1017F500E4FFEEC313FEA2B5E433FDC43333335423
:10180500804206D2B6C2B60FBF08E7EEC4540F75C4
:09181500F00AA4FFEE540F2FFFAE
:01181E0022A7
:10186800C2B7C2B6D2B71218551217F5D2B6C2B758
:01187800224D
:10187900C2B6D2B7121855AF05121855C2B6C2B7BB
:01188900223C
:10178800E4FD7F8E121879E51675F00A84C454F0CA
:10179800FFE51675F00A84E5F04FFD7F821218798F
:1017A800E51775F00A84C454F0FFE51775F00A844C
:1017B800E5F04FFD7F841218797D807F8E021879BD
:10183F007F811218688F157F831218688F167F8526
:06184F001218688F172239
:030003000216D40E
:1016D400C0E0C0F0C0D075D000C000C004C005C0D8
:1016E40006C00720A516751401E5172401FFE4338D
:1016F400FE7C007D181217338D17802220A61675E4
:101704001401E5162401FFE433FE7C007D3C12172E
:10171400338D16800920A706121788751400D00788
:0F172400D006D005D004D000D0D0D0F0D0E03225
:1017C80075F010A42523F582E435F0F583E582242D
:0C17D80006F582E5833400F583E493FFFE
:1017E400E4FEEFC313FF92A0C2A1D2A10EBE08F281
:0117F40022D2
:1010E60075A881D288E4F580E514700312183FE5EF
:1010F6001775F00A84F51CE51775F00A8485F01D4E
:10110600E51675F00A84F51EE51675F00A8485F075
:101116001FE51575F00A84F520E51575F00A848536
:10112600F021E50E651C6005E4F524F525E50F655F
:101136001D6005E4F526F527E510651E6005E4F556
:1011460028F529E511651F6005E4F52AF52BE5125A
:1011560065206005E4F52CF52DE51365216005E4B1
:10116600F52EF52FE4F522F523C3E5239410E522A9
:10117600940040030210EEAD238D90C3E525944004
:10118600E5249401504AE51C1460191460282402D1
:10119600703474A62525F582740F35241217DFE402
:1011A600F50E802274A62525F582740035241217C3
:1011B600DF750E01801074E62525F582740135244D
:1011C6001217DF750E020525E525700E0524800A27
:1011D60075F010E51CA42D1217CEC3E5279440E543
:1011E60026940140030212EBE51DB40A00400302F7
:1011F60012E19011FFF828287302121D02123E0216
:10120600125102126402127702128902129B021212
:10121600AD0212BF0212D1E51C700A74662527F5CD
:1012260082740E800874E62527F582740B35261223
:1012360017DFE4F50F0212E174A62527F582740084
:1012460035261217DF750F010212E174E62527F520
:1012560082740135261217DF750F020212E1742619
:101266002527F582740335261217DF750F03021240
:10127600E174662527F582740435261217DF750F8B
:1012860004805874A62527F582740535261217DFC3
:10129600750F05804674E62527F5827406352612F5
:1012A60017DF750F06803474262527F582740835F6
:1012B600261217DF750F07802274662527F58274BC
:1012C6000935261217DF750F08801074A62527F535
:1012D60082740A35261217DF750F090527E5277070
:1012E6000905268005E51D1217C8C3E5299440E5C2
:1012F6002894014003021387E51E1460221460310E
:1013060014604014604F14605E2405706A742625CC
:1013160029F582740D35281217DFE4F5108058740C
:10132600A62529F582740035281217DF751001806D
:101336004674E62529F582740135281217DF7510E3
:1013460002803474262529F582740335281217DFA6
:10135600751003802274662529F5827404352812D7
:1013660017DF751004801074A62529F582740535DB
:10137600281217DF7510050529E52970090528804B
:1013860005E51E1217C8C3E52B9440E52A940140D3
:1013960003021489E51FB40A00400302147F901368
:1013A600ABF82828730213C90213DC0213EF0214E8
:1013B6000202141502142702143902144B02145D9A
:1013C60002146F74E6252BF582740B352A1217DF8B
:1013D600E4F51102147F74A6252BF5827400352AD4
:1013E6001217DF75110102147F74E6252BF582743E
:1013F60001352A1217DF75110202147F7426252B78
:10140600F5827403352A1217DF75110302147F74EF
:1014160066252BF5827404352A1217DF75110480B0
:101426005874A6252BF5827405352A1217DF751117
:1014360005804674E6252BF5827406352A1217DFD9
:1014460075110680347426252BF5827408352A1208
:1014560017DF75110780227466252BF5827409350E
:101466002A1217DF751108801074A6252BF58274D1
:101476000A352A1217DF751109052BE52B700C05A5
:101486002A800875F010E51F1217CBC3E52D94408E
:10149600E52C94014003021528E52014602214600F
:1014A6003114604014604F14605E2405706A74261F
:1014B600252DF582740D352C1217DFE4F5128058B0
:1014C60074A6252DF5827400352C1217DF751201CE
:1014D600804674E6252DF5827401352C1217DF75CA
:1014E600120280347426252DF5827403352C1217CA
:1014F600DF75120380227466252DF5827404352C5F
:101506001217DF751204801074A6252DF582740556
:10151600352C1217DF751205052DE52D700C052CDF
:10152600800875F010E5201217CBC3E52F9440E52F
:101536002E9401400302162DE521B40A0040030251
:10154600162390154FF828287302156D0215800290
:1015560015930215A60215B90215CB0215DD021563
:10156600EF02160102161374E6252FF582740B3569
:101576002E1217DFE4F51302162374A6252FF58223
:101586007400352E1217DF75130102162374E62533
:101596002FF5827401352E1217DF751302021623FA
:1015A6007426252FF5827403352E1217DF75130363
:1015B6000216237466252FF5827404352E1217DF62
:1015C600751304805874A6252FF5827405352E12DE
:1015D60017DF751305804674E6252FF582740635E8
:1015E6002E1217DF75130680347426252FF58274A4
:1015F60008352E1217DF75130780227466252FF51E
:10160600827409352E1217DF751308801074A6250B
:101616002FF582740A352E1217DF751309052FE58B
:101626002F7009052E8005E4F52EF52FC2A2D2A251
:101636007F037E0012181F0523E523700205220290
:02164600116F22
:101654000210E6E493A3F8E493A34003F68001F2B6
:1016640008DFF48029E493A3F85407240CC8C33397
:10167400C4540F4420C8834004F456800146F6DF66
:10168400E4800B010204081020408090188AE47E54
:10169400019360BCA3FF543F30E509541FFEE4935B
:1016A400A360010ECF54C025E060A840B8E493A322
:1016B400FAE493A3F8E493A3C8C582C8CAC583CA4D
:1016C400F0A3C8C582C8CAC583CADFE9DEE780BE05
:01188D00005A
:10173300BC000BBE0029EF8DF084FFADF022E4CC9A
:10174300F875F008EF2FFFEE33FEEC33FCEE9DEC63
:10175300984005FCEE9DFE0FD5F0E9E4CEFD22EDA9
:10176300F8F5F0EE8420D21CFEADF075F008EF2FF3
:10177300FFED33FD4007985006D5F0F222C398FDE4
:051783000FD5F0EA2281
:00000001FF
